:100000004BC0000066C0000064C0000062C0000079
:1000100060C000005EC000005CC000005AC000006C
:1000200058C0000056C0000054C0000052C000007C
:1000300050C000004EC000004CC000004AC000008C
:1000400048C0000046C0000044C0000042C000009C
:1000500040C000003EC000003CC000003AC00000AC
:1000600038C0000036C0000034C0000032C00000BC
:1000700030C000002EC000002CC000002AC00000CC
:1000800028C0000026C0000024C0000022C00000DC
:1000900020C000001EC0000011241FBECFEFD0E220
:1000A000DEBFCDBF21E0A6E0B1E001C01D92AA30C5
:1000B000B207E1F711E0A0E0B1E0E0E1F5E000E037
:1000C0000BBF02C007900D92A630B107D9F77FD0C1
:1000D0001DC296CF8FEF81B912B80895E1E8F0E024
:1000E0008081816080830895AC01E1E8F0E0908137
:1000F0009860908388EE93E09093890080938800C5
:100100001092850010928400EFE6F0E090819260FA
:100110009083B19A20E030E005C0B19BFECFB19A48
:100120002F5F3F4F241735071CF4B19BF6CFF7CF55
:100130000895CF93DF93EC0184E090E0C6D09983DB
:100140008883FC0113821282DF91CF910895DB0135
:10015000ED91FC91309761F0DA018D919C911197AE
:10016000938382838D919C91FB0191838083089579
:10017000DA012D913C911197FC01318320838D91FF
:100180009C91DB018D939C930895FC01808191816A
:10019000DB018D939C93A081B181109731F0129671
:1001A0008D919C911397918380830895DC01ED914B
:1001B000FC91309749F080E090E001960280F38155
:1001C000E02D3097D1F7089580E090E00895CF9327
:1001D000DF93CDB7DEB728970FB6F894DEBF0FBE1A
:1001E000CDBF7CDF77DF8FEF84B918861F821E8238
:1001F0001D821A8219821C821B82309BFECF84E1F1
:1002000090E072DFCE01059694DFED81FE8186B12C
:10021000807390E0959587959595879595958795A9
:10022000959587958083AE014B5F5F4FBE016D5FF3
:100230007F4FCE0101968BDFBE016D5F7F4FCE01F8
:100240000196B4DF8295880F880F807C82B930993F
:10025000FECF84E190E048DFBE016D5F7F4FCE01AD
:100260000196A4DF04974CF2BE01695F7F4FCE0177
:1002700001968BDF8F819885C0D012B800E010E026
:10028000BE01695F7F4FCE0101967FDF22B1EF8112
:10029000F8858081082E000C990B002E02C0880F73
:1002A000991F0A94E2F7822B82B98F819885A5D095
:1002B00080ED97E019DF0E5F1F4F0630110501F743
:1002C0001A8219821C821B8298CF0F931F93CF939F
:1002D000DF938230910510F482E090E0E091080114
:1002E000F091090120E030E0A0E0B0E0309719F192
:1002F000408151810281138148175907C8F0841742
:10030000950769F4109731F012960C931297139693
:100310001C9327C0009308011093090122C02115E6
:10032000310519F04217530718F49A01BD01EF0186
:10033000DF01F801DBCF21153105F9F0281B390B5E
:100340002430310580F48A819B816115710521F08B
:10035000FB019383828304C0909309018093080179
:10036000FE01329644C0FE01E20FF31F8193919388
:1003700022503109398328833AC0209106013091F7
:100380000701232B41F420910201309103013093A6
:1003900007012093060120910001309101012115F0
:1003A000310541F42DB73EB740910401509105014C
:1003B000241B350BE0910601F0910701E217F307CA
:1003C000A0F42E1B3F0B2817390778F0AC014E5FC5
:1003D0005F4F2417350748F04E0F5F1F50930701FA
:1003E000409306018193919302C0E0E0F0E0CF01D9
:1003F000DF91CF911F910F910895CF93DF930097D5
:1004000009F481C0FC01329713821282A091080185
:10041000B0910901109781F420813181820F931FDF
:1004200020910601309107012817390751F5F09303
:100430000701E093060167C0ED0120E030E0CE1730
:10044000DF0740F44A815B819E0141155105F1F0BF
:10045000EA01F5CFD383C28340815181840F951F78
:10046000C817D90759F488819981840F951F02967E
:10047000918380838A819B819383828321153105B7
:1004800029F4F0930901E09308013DC0E901FB83E1
:10049000EA8349915991C40FD51FEC17FD0761F408
:1004A00080819181840F951F0296E9019983888349
:1004B000828193819B838A83E0E0F0E012968D91A4
:1004C0009C911397009719F0FD01DC01F7CF8D91F6
:1004D0009C9111979D012E5F3F4F820F931F20919A
:1004E0000601309107012817390769F4309729F47C
:1004F000109209011092080102C013821282B09377
:100500000701A0930601DF91CF910895F894FFCFE2
:0605100000000A012000BA
:00000001FF
