:100000004BC0000066C0000064C0000062C0000079
:1000100060C000005EC000005CC000005AC000006C
:1000200058C0000056C0000054C0000052C000007C
:1000300050C000004EC000004CC000004AC000008C
:1000400048C0000046C0000044C0000042C000009C
:1000500040C000003EC000003CC000003AC00000AC
:1000600038C0000036C0000034C0000032C00000BC
:1000700030C00000A9C000002CC000002AC0000051
:1000800028C0000026C0000024C0000022C00000DC
:1000900020C000001EC0000011241FBECFEFD0E220
:1000A000DEBFCDBF11E0A0E0B1E0EAE1F2E000E0A8
:1000B0000BBF02C007900D92A030B107D9F721E025
:1000C000A0E0B1E001C01D92A230B207E1F772D00A
:1000D000A2C096CF81E680937C0088E880937A0066
:1000E00082E080937E0092B181E0892782B91092EC
:1000F0000001109201010895EAE7F0E08081806438
:10010000808392B182E0892782B9089580910001AD
:100110000895E9E7F0E0808180930001AAE7B0E06C
:100120008C9180648C9392B182E0892782B980811E
:1001300082B988EE93E00BC008958FEF81B912B8B1
:100140000895E1E8F0E08081816080830895AC014A
:10015000E1E8F0E090819860908388EE93E09093DE
:100160008900809388001092850010928400EFE649
:10017000F0E0908192609083B19A20E030E005C079
:10018000B19BFECFB19A2F5F3F4F241735071CF468
:10019000B19BF6CFF7CF0895279A83E884BD82E01C
:1001A00085BD88E787BD089587BD08958FEF81B924
:1001B0008AB90895C6DFC1DFF9DFEEDF8BDF7894FF
:1001C0009BDFA4DFF1DFFDCF1F920F920FB60F92DE
:1001D00011240BB60F922F933F934F935F936F931E
:1001E0007F938F939F93AF93BF93EF93FF9391DF91
:1001F000FF91EF91BF91AF919F918F917F916F91FF
:100200005F914F913F912F910F900BBE0F900FBEBA
:0A0210000F901F901895F894FFCF8F
:00000001FF
