S0180000476363426F61726450726F6A656374312E737265630F
S11300004BC0000066C0000064C0000062C0000075
S113001060C000005EC000005CC000005AC0000068
S113002058C0000056C0000054C0000052C0000078
S113003050C000004EC000004CC000004AC0000088
S113004048C0000046C0000044C0000042C0000098
S113005040C000003EC000003CC000003AC00000A8
S113006038C0000036C0000034C0000032C00000B8
S113007030C00000B3C000002CC000002AC0000043
S113008028C0000026C0000024C0000022C00000D8
S113009020C000001EC0000011241FBECFEFD0E21C
S11300A0DEBFCDBF11E0A0E0B1E0EEE2F2E000E09F
S11300B00BBF02C007900D92A030B107D9F721E021
S11300C0A0E0B1E001C01D92A230B207E1F764D014
S11300D0ACC096CF81E680937C0088E880937A0058
S11300E082E080937E001092000110920101089535
S11300F0EAE7F0E08081806480830895CF93DF9302
S1130100C9E7D0E0888180930001F2DF888182B959
S1130110888187BDDF91CF9108958FEF81B912B89F
S11301200895E1E8F0E08081816080830895AC0166
S1130130E1E8F0E090819860908388EE93E09093FA
S11301408900809388001092850010928400B19AEF
S113015020E030E005C0B19BFECFB19A2F5F3F4F46
S1130160241735071CF4B19BF6CFF7CF089584B15B
S11301708F6884B983E884BD83E085BD8CED87BD39
S1130180089595B1907F95B9813011F4299A089515
S1130190823009F42A9A0895F894C3DFBEDFE7DFBA
S11301A099DF7894A5DF82E0ECDF17B8C2E012E0B3
S11301B0D1E0309B0FC084E190E0B9DFC13011F091
S11301C0CD2F01C0C12F8C2FDCDF3099FECF84E10D
S11301D090E0ADDF8FE090E0AADFEBCF1F920F92AB
S11301E00FB60F9211240BB60F922F933F934F9398
S11301F05F936F937F938F939F93AF93BF93EF938B
S1130200FF937CDFFF91EF91BF91AF919F918F910D
S11302107F916F915F914F913F912F910F900BBE02
S11102200F900FBE0F901F901895F894FFCF0B
S9030000FC
