:100000004BC00000D1C3000064C0000062C000000B
:1000100060C000004EC300001EC2000071C300009B
:100020009CC3000056C0000054C0000052C0000035
:1000300050C000004EC000004CC000004AC000008C
:1000400048C0000046C0000044C0000042C000009C
:1000500040C000003EC000003CC000003AC00000AC
:1000600038C0000036C0000034C0000032C00000BC
:1000700030C00000F7C200002CC000002AC0000001
:1000800028C0000026C0000024C0000022C00000DC
:1000900020C000001EC0000011241FBECFEFD0E220
:1000A000DEBFCDBF11E0A0E0B1E0EAEBF8E000E098
:1000B0000BBF02C007900D92A631B107D9F722E01D
:1000C000A6E1B1E001C01D92AC31B207E1F796D2D2
:1000D000F2C396CF81E680937C0088E880937A0013
:1000E00082E080937E008FEF8093190110921A01B5
:1000F0000895EAE7F0E080818064808308958FEFBF
:10010000809319010895809119010895E9E7F0E0BD
:10011000808180931701908180911901981720F4B4
:100120008091790080931901E4CF089510921D0108
:10013000109219021092180210921C010895209139
:100140001B012333F8F430911902832F90E0FC0156
:10015000EE0FFF1FEE0FFF1FE80FF91FE25EFE4FCD
:1001600043E0438341E04483128211821082309342
:100170001D01019662E370E068D3809319022F5F3E
:1001800020931B010895E0911C01F0E09F01220FD4
:10019000331F220F331FE20FF31FE25EFE4F8383F4
:1001A00064830895E0911D01F0E0CF01880F991F4D
:1001B000880F991FE80FF91FE25EFE4F81E08283EE
:1001C00082E08383089580911C0190E0FC01EE0F92
:1001D000FF1FEE0FFF1F8E0F9F1FFC01E25EFE4F01
:1001E00083810895E9E6F0E0808181608083EAE61A
:1001F000F0E080818860808380818260808380815C
:10020000806280838081806880838DB3816F8DBBA5
:1002100008958FEF81B98AB1806F8AB912B80895B5
:10022000863089F48BB18F738BB9633021F48BB135
:10023000806C8BB90895613011F45F9A0895623033
:1002400081F45E9A08958BB18F7C8BB9633021F471
:100250008BB180638BB90895613011F45C9A089575
:100260005D9A0895E1E8F0E08081816080830895DF
:10027000AC01E1E8F0E090819860908388EE93E033
:1002800090938900809388001092850010928400DA
:10029000B19A20E030E005C0B19BFECFB19A2F5F4C
:1002A0003F4F241735071CF4B19BF6CFF7CF0895C5
:1002B00084B18F6884B983E884BD83E085BD17BCB1
:1002C000089587BD089595B1907F95B9813011F457
:1002D000299A0895823009F42A9A089517BC80E07B
:1002E000F2CF089510921A028FEF87B908958130E6
:1002F00079F48091160190E00196837090789923AB
:1003000024F401978C6F9F6F0196809316010BC0A8
:1003100080911601811104C083E08093160103C00F
:10032000815080931601E0911601F0E0EE0FFF1F5F
:10033000EF5FFE4F808188B9089580911B02089578
:1003400080911A02811109C081E0D1DF8FE090E035
:100350008FDF80911A028823B9F383E080931B0218
:1003600008951F93CF93DF93882359F0162FD82F2A
:10037000C0E0812FBCDF8FE090E07ADFCF5FDC133D
:10038000F8CFDF91CF911F910895CF93C82F80911F
:100390001B02833079F4C23021F46FEF82E3E1DF96
:1003A00049C0C11104C061E082E3DBDF43C061E00A
:1003B00084E6D7DF80911B02823079F4C13021F4CA
:1003C0006FEF82E3CEDF3BC0C33021F461E082E314
:1003D000C8DF35C061E084E6C4DF80911B02813054
:1003E00079F4C11104C06FEF82E3BBDF2DC0C230CE
:1003F00021F461E082E3B5DF27C061E084E6B1DF8C
:1004000080911B02811113C0C33021F46FEF82E38E
:10041000A8DF0DC0C13041F461E082E3A2DF92B1F8
:1004200084E0892782B903C061E084E69ADFC09343
:100430001B020FC080911B02823079F6CBCF8091D6
:100440001B028130E9F6D9CF80911B02882361F32A
:10045000EECFCF9108951F920F920FB60F921124F5
:100460008F9381E080931A028F910F900FBE0F90AF
:100470001F9018959093CD008093CC00E8ECF0E0AD
:10048000808182608083E9ECF0E0808188608083F5
:10049000EAECF0E08081866080830895E8ECF0E08B
:1004A000908195FFFDCF8093CE0008950F931F9309
:1004B000CF93FC018081882351F08F01C0E0EEDFF3
:1004C000CF5FF801EC0FF11D80818111F8CFCF9142
:1004D0001F910F9108950F931F93CF93DF938C017A
:1004E0009C01369527953695279536952795A5EC49
:1004F000B0E2BED1AC01529542954F7045275F7076
:1005000045279A01ADECBCECB3D1969587959695AD
:100510008795969587959C01220F331F880F991F09
:10052000880F991F880F991F820F931F9A01281B0C
:10053000390BC901805DB2DF980136952795369554
:100540002795ABE7B4E194D1AC01569547959A0154
:10055000ADECBCEC8DD19695879596958795969543
:1005600087959C01220F331F880F991F880F991FB1
:10057000880F991F820F931F9A01281B390BC901FD
:10058000805D8CDF9801ADECBCEC72D1EC01D695AE
:10059000C795D695C795D695C7959E0169D196956D
:1005A000879596958795969587959C01220F331F81
:1005B000880F991F880F991F880F991F820F931F0B
:1005C0009E01281B390BC901805D68DFCE01880FB1
:1005D000991FCC0FDD1FCC0FDD1FCC0FDD1FC80F07
:1005E000D91FC8018C1B9D0B805D58DF83E191E012
:1005F0005DDFDF91CF911F910F910895F89432DE66
:1006000008DEF0DD6FDE54DE65DD90DD8CE090E02D
:1006100031DF789489E091E049DF84E690E05BDFA8
:1006200088EC90E025DE8CDE88EC90E021DE81E035
:100630004ADE8EE146DE5DDD63E081E0A4DD88EC2C
:1006400090E016DEC0DDC82F78DEC81305C081E05B
:100650003ADE8EE136DE02C0B6DD97DE84E690E05B
:1006600007DEF0CF1F920F920FB60F9211240BB638
:100670000F922F933F934F935F936F937F938F933B
:100680009F93AF93BF93EF93FF9340DDFF91EF9163
:10069000BF91AF919F918F917F916F915F914F919A
:1006A0003F912F910F900BBE0F900FBE0F901F9098
:1006B00018951F920F920FB60F9211240BB60F923E
:1006C0002F933F934F935F936F937F938F939F935A
:1006D000AF93BF93EF93FF9332DDFF91EF91BF9103
:1006E000AF919F918F917F916F915F914F913F91CA
:1006F0002F910F900BBE0F900FBE0F901F9018956B
:100700001F920F920FB60F9211240BB60F922F93D8
:100710003F934F935F936F937F938F939F93AF9389
:10072000BF93CF93EF93FF9308DEC82F4CDDC81320
:10073000D5DDFF91EF91CF91BF91AF919F918F91B7
:100740007F916F915F914F913F912F910F900BBED1
:100750000F900FBE0F901F9018951F920F920FB61B
:100760000F9211240BB60F922F933F934F935F93E9
:100770006F937F938F939F93AF93BF93EF93FF9369
:1007800011DDFF91EF91BF91AF919F918F917F917B
:100790006F915F914F913F912F910F900BBE0F90F2
:1007A0000FBE0F901F9018951F920F920FB60F92C9
:1007B00011240BB60F922F933F934F935F936F9338
:1007C0007F938F939F93AF93BF93EF93FF9380910A
:1007D0000001813031F462E086E022DD10920001F8
:1007E00021C063E086E01CDD81E0809300018BDCAA
:1007F00082B989DC893E20F063E083E0C4DC11C06B
:1008000082DC853D20F063E081E0BDDC0AC07BDC5A
:10081000873720F063E082E0B6DC03C063E080E06D
:10082000B2DC6DDCFF91EF91BF91AF919F918F9101
:100830007F916F915F914F913F912F910F900BBEE0
:100840000F900FBE0F901F90189597FB072E16F470
:10085000009406D077FD08D01AD007FC05D03EF4EE
:10086000909581959F4F0895709561957F4F08955C
:10087000A29FB001B39FC001A39F700D811D1124E1
:10088000911DB29F700D811D1124911D0895AA1B09
:10089000BB1B51E107C0AA1FBB1FA617B70710F06B
:1008A000A61BB70B881F991F5A95A9F7809590959D
:0A08B000BC01CD010895F894FFCFBC
:1008BA000136002E002D003500426F6F74696E6795
:0608CA002E2E2E0D0A0087
:00000001FF
