S0180000476363426F61726450726F6A656374312E737265630F
S11300004BC0000066C0000064C0000062C0000075
S113001060C000005EC000005CC000005AC0000068
S113002058C0000056C0000054C0000052C0000078
S113003050C000004EC000004CC000004AC0000088
S113004048C0000046C0000044C0000042C0000098
S113005040C000003EC000003CC000003AC00000A8
S113006038C0000036C0000034C0000032C00000B8
S113007030C00000BAC000002CC000002AC000003C
S113008028C0000026C0000024C0000022C00000D8
S113009020C000001EC0000011241FBECFEFD0E21C
S11300A0DEBFCDBF11E0A0E0B1E0ECE3F2E000E0A0
S11300B00BBF02C007900D92A830B107D9F721E019
S11300C0A8E0B1E001C01D92AB30B207E1F77FD0E8
S11300D0B3C096CFEAE7F0E080818064808308951E
S11300E0CF93DF93C9E7D0E0888180930901F2DFE1
S11300F0888182B9888187BDDF91CF9108958FEF80
S113010081B912B80895E1E8F0E0808181608083CC
S11301100895AC01E1E8F0E090819860908388EE66
S113012093E0909389008093880010928500109248
S11301308400B19A20E030E005C0B19BFECFB19AB3
S11301402F5F3F4F241735071CF4B19BF6CFF7CF31
S1130150089584B18F6884B983E884BD83E085BD44
S113016017BC089595B1907F95B9813011F4299AFF
S11301700895823009F42A9A08958FEF81B98AB9D3
S11301800895813079F48091080190E0019683709C
S11301909078992324F401978C6F9F6F0196809334
S11301A008010BC080910801811104C083E0809391
S11301B0080103C0815080930801E0910801F0E038
S11301C0EE0FFF1FE050FF4F80818BB90895F89424
S11301D09ADF95DFD2DFBDDF789481E0C3DF81E071
S11301E0D0DF8CE090E095DFFACF1F920F920FB62C
S11301F00F9211240BB60F922F933F934F935F935B
S11302006F937F938F939F93AF93BF93EF93FF93DA
S113021067DFFF91EF91BF91AF919F918F917F9194
S11302206F915F914F913F912F910F900BBE0F9063
S10F02300FBE0F901F901895F894FFCF9C
S10B023C300006002800050053
S9030000FC
