S0180000476363426F61726450726F6A656374312E737265630F
S11300004BC000000C9440080C94BF080C940509E4
S113001061C000004DC700007FC500007FC700001D
S11300200C942D0857C0000055C0000053C00000B8
S113003051C000004FC000004DC000004BC0000084
S113004049C0000047C0000045C0000043C0000094
S113005041C000003FC000003DC000003BC00000A4
S113006039C0000037C0000035C0000033C00000B4
S113007031C00000EBC600002DC000002BC0000002
S11300800C944B0927C0000025C0000023C00000C9
S113009021C000001FC0000011241FBECFEFD0E21A
S11300A0DEBFCDBF11E0A0E0B1E0ECE2F3E100E09F
S11300B00BBF02C007900D92A43CB107D9F722E010
S11300C0A4ECB1E001C01D92AF3DB207E1F755D6F3
S11300D00C94940995CFCF93DF93CDB7DEB78CE71B
S11300E090E021E4FC0120838AE790E028E8FC0109
S11300F020838EE790E022E0FC0120838FEF9FEFC6
S11301009093D4018093D3011092D0011092CF0127
S11301101092D5011092CB011092CA011092D20113
S11301201092D1011092CD011092CC010000DF9108
S1130130CF910895CF93DF93CDB7DEB788E790E0F2
S1130140FC01808191819093CB018093CA0180ED61
S113015093E09093D2018093D10186E491E044D559
S11301608091D1019091D20168D58EE491E03CD583
S11301700000DF91CF910895CF93DF93CDB7DEB721
S11301808AE790E02AE730E0F90120812064FC014D
S113019020830000DF91CF910895CF93DF93CDB7F3
S11301A0DEB78FEF9FEF9093D4018093D3010000CB
S11301B0DF91CF910895CF93DF93CDB7DEB78091D0
S11301C0D3019091D401DF91CF910895CF93DF9320
S11301D0CDB7DEB71092D0011092CF011092CD01AD
S11301E01092CC010000DF91CF910895CF93DF935B
S11301F0CDB7DEB78091CF019091D001DF91CF913F
S11302000895CF93DF93CDB7DEB78091CC01909161
S1130210CD01DF91CF910895CF93DF93CDB7DEB7B2
S11302208091CF019091D00101969093D001809359
S1130230CF0188E790E0FC01208131818091D301D6
S11302409091D4012817390748F488E790E0FC011D
S1130250808191819093D4018093D30188E790E0C9
S1130260FC01208131818091D1019091D201281724
S1130270390748F48091CC019091CD010196909377
S1130280CD018093CC0178DF0000DF91CF910895F8
S1130290CF93DF93CDB7DEB71092DC011092DB026F
S11302A01092DB011092D7011092DD011092DA0254
S11302B01092D9011092DE011092D6010000DF9154
S11302C0CF910895CF93DF93CDB7DEB78091D80156
S11302D0833308F043C08091DB02282F30E0C9014A
S11302E0880F991F880F991F820F931F8C519E4F5F
S11302F021E0FC0120838091DB02282F30E0C9013A
S1130300880F991F880F991F820F931F8E519E4F3C
S1130310FC0110828091DB02282F30E0C901880F94
S1130320991F880F991F820F931F80529E4FFC01C3
S1130330118210828091DB028093DC018091DB02C8
S1130340882F90E0019622E330E0B901CBD7809367
S1130350DB028091D8018F5F8093D8010000DF9188
S1130360CF910895CF93DF9300D0CDB7DEB78983C3
S11303706A838091D701282F30E0C901880F991F23
S1130380880F991F820F931F8D519E4F2981FC0165
S113039020838091D701282F30E0C901880F991F4D
S11303A0880F991F820F931F8C519E4F2A81FC0145
S11303B020838091D7018F5F8093D70100000F9035
S11303C00F90DF91CF910895CF93DF93CDB7DEB730
S11303D08091DB01282F30E0C901880F991F880F15
S11303E0991F820F931F8D519E4FFC018081DF91D5
S11303F0CF910895CF93DF93CDB7DEB78091DB0122
S1130400282F30E0C901880F991F880F991F820F88
S1130410931F8C519E4F24E0FC0120838091DB01CB
S11304208F5F8093DB018091D6018F5F8093D6012B
S11304308091D80181508093D8010000DF91CF9141
S11304400895CF93DF93CDB7DEB78091D801DF91C4
S1130450CF910895CF93DF93CDB7DEB78091D601C6
S1130460DF91CF910895CF93DF93CDB7DEB789E6BF
S113047090E029E630E0F90120812160FC0120832D
S113048089E690E029E630E0F90120812C60FC0146
S1130490208389E690E029E630E0F9012081206399
S11304A0FC0120838AE690E02AE630E0F90120810D
S11304B02860FC0120838AE690E02AE630E0F90116
S11304C020812260FC0120838AE690E02AE630E065
S11304D0F90120812062FC0120838AE690E02AE66B
S11304E030E0F90120812068FC0120838DE390E055
S11304F02DE330E0F90120812767FC01208300000F
S1130500DF91CF910895CF93DF93CDB7DEB781E22A
S113051090E02FEFFC0120838AE290E02AE230E0B1
S1130520F9012081206EFC01208382E290E0FC012D
S113053010820000DF91CF910895CF93DF9300D014
S1130540CDB7DEB789836A838981863081F58BE2F2
S113055090E02BE230E0F90120812F73FC0120832D
S11305608A81833051F48BE290E02BE230E0F90190
S11305702081206CFC01208348C08A81813051F4A1
S11305808BE290E02BE230E0F90120812068FC014D
S113059020833BC08A818230C1F58BE290E02BE25C
S11305A030E0F90120812064FC0120832EC08BE21D
S11305B090E02BE230E0F90120812F7CFC012083C4
S11305C08A81833051F48BE290E02BE230E0F90130
S11305D020812063FC01208318C08A81813051F47A
S11305E08BE290E02BE230E0F90120812061FC01F4
S11305F020830BC082E08A838BE290E02BE230E020
S1130600F90120812062FC01208300000F900F90EB
S1130610DF91CF910895CF93DF93CDB7DEB781E813
S113062090E021E830E0F90120812160FC01208381
S113063081E890E021E830E0F90120812860FC01A4
S1130640208388E890E02CE230E0FC0131832083B1
S11306500000DF91CF910895CF93DF9300D0CDB701
S1130660DEB78A83198284E890E0FC01118210824B
S113067086E390E026E330E0F90120812260FC016A
S1130680208306C084E190E00DD089818F5F898347
S113069099818A819817B0F300000F900F90DF9131
S11306A0CF910895CF93DF9300D000D0CDB7DEB7BC
S11306B09C838B831A82198284E890E0FC01118266
S11306C0108286E390E026E330E0F9012081226085
S11306D0FC01208318C086E390E0FC018081882F10
S11306E090E082709927892B71F086E390E026E3ED
S11306F030E0F90120812260FC01208389819A8104
S113070001969A83898329813A818B819C81281758
S1130710390708F300000F900F900F900F90DF91AE
S1130720CF910895CF93DF93CDB7DEB784E290E005
S113073024E230E0F90120812F68FC01208384E465
S113074090E023E8FC01208385E490E023E0FC01B1
S1130750208387E490E0FC0110820000DF91CF91B8
S11307600895CF93DF931F92CDB7DEB7898387E4D3
S113077090E02981FC01208300000F90DF91CF914C
S11307800895CF93DF93CDB7DEB780E0EADF80E052
S113079013D00000DF91CF910895CF93DF931F9280
S11307A0CDB7DEB7898381E007D08981DADF000025
S11307B00F90DF91CF910895CF93DF931F92CDB720
S11307C0DEB7898385E290E025E230E0F9012081FB
S11307D0207FFC0120838981813051F485E290E0FF
S11307E025E230E0F90120812260FC0120831AC057
S11307F08981823051F485E290E025E230E0F9010C
S113080020812460FC0120830DC0198289818330FA
S113081049F485E290E025E230E0F9012081266088
S1130820FC01208300000F90DF91CF910895CF93B6
S1130830DF931F92CDB7DEB7898388E290E02981E8
S1130840222F30E0220F331F245C3E4FF901208118
S11308503181FC01208300000F90DF91CF91089536
S1130860CF93DF93CDB7DEB71092DD0287E290E03D
S11308702FEFFC0120830000DF91CF910895CF93E7
S1130880DF931F92CDB7DEB789838981813081F4EC
S11308908091C401882F90E0019683709078992309
S11308A024F401978C6F9F6F01968093C4010DC04F
S11308B08091C401882321F483E08093C40105C09E
S11308C08091C40181508093C4018091C401AFDF41
S11308D000000F90DF91CF910895CF93DF93CDB7B0
S11308E0DEB78091DE02DF91CF910895CF93DF933D
S11308F0CDB7DEB78091DD02DF91CF910895CF931C
S1130900DF93CDB7DEB704C081E0B9DF8FE0A4DEAA
S1130910EDDF982F81E089278823B1F783E0809366
S1130920DE020000DF91CF910895CF93DF93CDB71E
S1130930DEB727970FB6F894DEBF0FBECDBF8E8308
S11309406F8388DD853048F480E091E09A83898361
S113095088E291E09C838B832CC07CDD8A3048F450
S113096080E091E09A83898388E291E09C838B8381
S113097020C070DD8F3048F480E091E09A83898351
S113098088E291E09C838B8314C064DD843148F455
S113099080E091E09A83898388E291E09C838B8351
S11309A008C080E091E09A83898388E291E09C8387
S11309B08B831D8240C08F8162DF8D81823160F420
S11309C089819A81FC01808191816CDE89819A817F
S11309D002969A8389831EC08E81282F30E08D81F0
S11309E0882F90E0A901481B590BCA010A9764F4A7
S11309F08B819C81FC018081918154DE8B819C815F
S1130A0002969C838B8306C089819A81FC01808134
S1130A10918148DE8E81282F30E08D81882F90E0EF
S1130A20A901481B590BCA01849714F486E2B5DE68
S1130A308D818F5F8D839D818E81981708F4BBCF44
S1130A40000027960FB6F894DEBF0FBECDBFDF912E
S1130A50CF910895CF93DF931F92CDB7DEB78983EB
S1130A608091DE02833089F48981823021F46FEF32
S1130A7082E35BDF0AC08981882321F461E082E399
S1130A8054DF03C061E084E650DF8091DE028230EF
S1130A9089F48981813021F46FEF82E346DF0AC053
S1130AA08981833021F461E082E33FDF03C061E0A8
S1130AB084E63BDF8091DE02813089F489818823DA
S1130AC021F46FEF82E331DF0AC08981823021F49F
S1130AD061E082E32ADF03C061E084E626DF8091DF
S1130AE0DE02882389F48981833021F46FEF82E365
S1130AF01CDF0AC08981813021F461E082E315DFC3
S1130B0003C061E084E611DF89818093DE02000086
S1130B100F90DF91CF9108951F920F9200905F0084
S1130B200F9211248F93CF93DF93CDB7DEB781E07B
S1130B308093DD020000DF91CF918F910F9000929E
S1130B405F000F901F901895CF93DF9300D0CDB71F
S1130B50DEB79A8389838DEC90E029813A81232F33
S1130B603327FC0120838CEC90E02981FC01208355
S1130B7088EC90E028EC30E0F90120812260FC014F
S1130B80208389EC90E029EC30E0F9012081286091
S1130B90FC0120838AEC90E02AEC30E0F90120810A
S1130BA02660FC01208300000F900F90DF91CF910D
S1130BB00895CF93DF931F92CDB7DEB789830000EA
S1130BC088EC90E0FC018081882F90E08072992766
S1130BD0892BB1F38EEC90E02981FC012083000085
S1130BE00F90DF91CF910895CF93DF9300D01F92A0
S1130BF0CDB7DEB79B838A8319820DC08981882F84
S1130C0090E02A813B81820F931FFC018081D1DF18
S1130C1089818F5F89838981882F90E02A813B8134
S1130C20820F931FFC018081882341F700000F90FD
S1130C300F900F90DF91CF910895CF93DF9300D061
S1130C40CDB7DEB79A83898389819A8196958795F2
S1130C5096958795969587959C01A5ECB0E255D31A
S1130C60AC01529542954F7045275F7045279A0114
S1130C70ADECBCEC4AD39695879596958795969559
S1130C808795880F991F9C01220F331F220F331F52
S1130C90820F931F9A01281B390BC901805D89DFDC
S1130CA089819A8196958795969587959C01ABE75E
S1130CB0B4E12BD3AC01569547959A01ADECBCEC4D
S1130CC024D3969587959695879596958795880FBD
S1130CD0991F9C01220F331F220F331F820F931F72
S1130CE09A01281B390BC901805D63DF89819A81D0
S1130CF09C01ADECBCEC09D3AC01569547955695D7
S1130D004795569547959A01ADECBCECFED2969565
S1130D1087959695879596958795880F991F9C0139
S1130D20220F331F220F331F820F931F9A01281B98
S1130D30390BC901805D3DDF49815A819A01ADECCF
S1130D40BCECE3D29695879596958795969587956D
S1130D50880F991F9C01220F331F220F331F820F0C
S1130D60931F9A01281B390BC901805D22DF000003
S1130D700F900F90DF91CF910895CF93DF93CDB76C
S1130D80DEB7F89448DCBFDB6EDB6ADDCBDCA3D9CD
S1130D907FDA8CE090E0D8DE789481E08093C5011E
S1130DA081E08093DC021092DF0181E08093DA011C
S1130DB081E591E019DF88EC4FDCA1DD88EC4CDCA7
S1130DC06FEF88E0B2DD88EC47DC86E2E6DCD4D95C
S1130DD082E042DCAFD98CE591E006DF82E03CDCC6
S1130DE086E2DBDC8091DC028823E1F782E691E095
S1130DF0FBDE27DB882F90E020DF8DE691E0F4DE38
S1130E008091DE01882F90E018DF87E791E0ECDE27
S1130E108091D901882F90E010DF80E891E0E4DE32
S1130E208091DD01882F90E008DF8AE891E0DCDE24
S1130E308091DA02882F90E000DF84E991E0D4DE2B
S1130E4000008091DC028823E1F3CCCF1F920F9243
S1130E5000905F000F92112400905B000F922F937B
S1130E603F934F935F936F937F938F939F93AF932E
S1130E70BF93EF93FF93CF93DF93CDB7DEB7CCD976
S1130E800000DF91CF91FF91EF91BF91AF919F91BE
S1130E908F917F916F915F914F913F912F910F901F
S1130EA000925B000F9000925F000F901F901895C6
S1130EB01F920F9200905F000F92112400905B002C
S1130EC00F922F933F934F935F936F937F938F93DF
S1130ED09F93AF93BF93EF93FF93CF93DF93CDB7DC
S1130EE0DEB78091DA01813009F4ECD90000DF919A
S1130EF0CF91FF91EF91BF91AF919F918F917F918E
S1130F006F915F914F913F912F910F9000925B00F1
S1130F100F9000925F000F901F9018951F920F92F0
S1130F2000905F000F92112400905B000F921F93BA
S1130F302F933F934F935F936F937F938F939F93DD
S1130F40AF93BF93EF93FF93CF93DF93CDB7DEB708
S1130F503BDA833031F48091DA028F5F8093DA02D6
S1130F6017C032DA813031F48091DD018F5F8093D4
S1130F70DD010EC029DA882331F48091D9018F5F15
S1130F808093D90105C08091DE018F5F8093DE01DB
S1130F908091DA01882329F480914401815080935F
S1130FA044019BDC182F10DA181721F485E154DB77
S1130FB021DA09C0E6DB81E08093DF0105DA4ADD4E
S1130FC086E2EBDB17DA80914401882369F586E930
S1130FD043DBD7DB82E691E007DE80E090E02DDEA4
S1130FE08DE691E001DE8091DE01882F90E025DE20
S1130FF087E791E0F9DD8091D901882F90E01DDE2B
S113100080E891E0F1DD8091DD01882F90E015DE2C
S11310108AE891E0E9DD8091DA02882F90E00DDE24
S113102084E991E0E1DDFFCF0000DF91CF91FF91F2
S1131030EF91BF91AF919F918F917F916F915F914C
S11310404F913F912F911F910F9000925B000F9051
S113105000925F000F901F9018951F920F920090BE
S11310605F000F921124CF93DF93CDB7DEB700005A
S1131070DF91CF910F9000925F000F901F90189511
S11310801F920F9200905F000F92112400905B005A
S11310900F920F931F932F933F934F935F936F93ED
S11310A07F938F939F93AF93BF93EF93FF93CF93CC
S11310B0DF93CDB7DEB780914501813051F462E012
S11310C086E03BDA1092450181D881E08093D50116
S11310D03CC01092D50163E086E02FDA81E0809372
S11310E0450102E210E067D8F80180838AD824E63B
S11310F0289F8001299F100D112478D89C01C801D4
S1131100B901DCD0CB019093C7018093C60153D8B9
S11311108137934070F08091C6019091C7014F9739
S113112020F063E081E01ED90FC063E083E01AD9A8
S11311300BC041D88D3C914020F063E082E012D98D
S113114003C063E080E00ED928D80000DF91CF917E
S1131150FF91EF91BF91AF919F918F917F916F918B
S11311605F914F913F912F911F910F910F9000929A
S11311705B000F9000925F000F901F9018951F92D4
S11311800F9200905F000F92112400905B000F9269
S11311902F933F934F935F936F937F938F939F937B
S11311A0AF93BF93EF93FF93CF93DF93CDB7DEB7A6
S11311B08091DC02813039F41092DC0287E991E0FD
S11311C013DDDFDA08C081E08093DC0286E2E5DA31
S11311D082EA91E009DD85E03FDA0000DF91CF91FA
S11311E0FF91EF91BF91AF919F918F917F916F91FB
S11311F05F914F913F912F910F9000925B000F9060
S113120000925F000F901F9018951F920F9200900C
S11312105F000F92112400905B000F922F933F9375
S11312204F935F936F937F938F939F93AF93BF93EA
S1131230EF93FF93CF93DF93CDB7DEB79091DA01AD
S113124081E0992309F080E08093DA018091DA014A
S1131250882321F48EEA91E0C7DC03C088EB91E097
S1131260C3DC85E0F9D90000DF91CF91FF91EF91C4
S1131270BF91AF919F918F917F916F915F914F91AA
S11312803F912F910F9000925B000F9000925F00AE
S11312900F901F9018951F920F9200905F000F926D
S11312A01124CF93DF93CDB7DEB70000DF91CF9148
S11312B00F9000925F000F901F901895AA1BBB1B04
S11312C051E107C0AA1FBB1FA617B70710F0A61B42
S11312D0B70B881F991F5A95A9F780959095BC0163
S11312E0CD01089597FB072E16F4009406D077FDE0
S11312F008D0E4DF07FC05D03EF4909581959F4F1C
S11313000895709561957F4F0895A29FB001B39F92
S1131310C001A39F700D811D1124911DB29F700DFA
S10F1320811D1124911D0895F894FFCF45
S113132C540140012C0118010401F000DC00C80038
S113133CB400A0008C0078006E00640064006400AB
S113134C6400640064006400640078009600B400D7
S113135CD200F0000E012C014A01680136002E0067
S113136C2D003500020154687265733A20000D0A91
S113137C00426F6F74696E672E2E2E004F4B210D39
S113138C0A000D0A4275666665723A20000D0A530E
S113139C7465656C3A20000D0A416C756D3A200039
S11313AC0D0A57686974653A20000D0A426C616332
S11313BC6B3A20000D0A005061757365204F4E0D79
S11313CC0A005061757365204F46460D0A00526140
S11313DC6D70204F4E0D0A0052616D70204F4646C1
S10713EC0D0A0000E2
S9030000FC
