S0180000476363426F61726450726F6A656374312E737265630F
S11300004BC0000019C4000064C0000062C00000BE
S113001060C0000093C3000065C20000B6C30000C6
S1130020E4C3000056C0000054C0000052C00000E9
S113003050C000004EC000004CC000004AC0000088
S113004048C0000046C0000044C0000042C0000098
S113005040C000003EC000003CC000004FC400008F
S113006038C0000036C0000034C0000032C00000B8
S113007030C000003CC300002CC000002AC00000B7
S113008028C0000026C0000024C0000022C00000D8
S113009020C000001EC0000011241FBECFEFD0E21C
S11300A0DEBFCDBF11E0A0E0B1E0EEEBF9E000E08F
S11300B00BBF02C007900D92A633B107D9F722E017
S11300C0A6E3B1E001C01D92AE33B207E1F7DDD281
S11300D074C496CF81E480937C0088E880937A008E
S11300E082E080937E008FEF9FEF90933B0180939B
S11300F03A0110923C010895EAE7F0E080818064BF
S1130100808308958FEF9FEF90933B0180933A0192
S1130110089580913A0190913B010895E8E7F0E059
S113012080819181909338018093370120813181BE
S113013080913A0190913B012817390740F480914E
S113014078009091790090933B0180933A01EAE71B
S1130150F0E08081806480830895109240011092C1
S11301603B0210923F0110923D01089520913E01FF
S11301702333E8F430913B02832F90E0FC01EE0F2F
S1130180FF1FEE0FFF1FE80FF91FEF5BFE4F41E06B
S1130190448312821182108230934001019662E3FB
S11301A070E0D5D380933B022F5F20933E010895E6
S11301B0E0913F01F0E09F01220F331F220F331F14
S11301C0E20FF31FEF5BFE4F8383648308959091E6
S11301D03D01E92FF0E09F01220F331F220F331F4F
S11301E0E20FF31FEF5BFE4F838364839F5F909363
S11301F03D010895E0914001F0E0CF01880F991F7F
S1130200880F991FE80FF91FEF5BFE4F81E082838F
S113021082E08383089580913F0190E0FC01EE0F1A
S1130220FF1FEE0FFF1F8E0F9F1FFC01EF5BFE4FA2
S11302308381089520913F01822F90E0FC01EE0F0D
S1130240FF1FEE0FFF1F8E0F9F1FFC01EF5BFE4F82
S113025084E084832F5F20933F010895E9E6F0E072
S1130260808181608083EAE6F0E080818860808319
S113027080818260808380818062808380818068C5
S113028080838DB3816F8DBB08958FEF81B98AB15F
S1130290806F8AB912B80895863089F48BB18F7350
S11302A08BB9633021F48BB1806C8BB908956130C4
S11302B011F45F9A0895623081F45E9A08958BB1C7
S11302C08F7C8BB9633021F48BB180638BB9089533
S11302D0613011F45C9A08955D9A0895E1E8F0E0C4
S11302E08081816080830895E1E8F0E0808181600D
S11302F08083EEE6F0E08081816080830895AC0124
S1130300E1E8F0E090819860908388EE93E0909328
S11303108900809388001092850010928400B19A1D
S113032020E030E005C0B19BFECFB19A2F5F3F4F74
S1130330241735071CF4B19BF6CFF7CF089584B189
S11303408F6884B983E884BD83E085BD17BC0895B4
S113035087BD089595B1907F95B9813011F4299A9C
S11303600895823009F42A9A089517BC80E0F2CFE8
S1130370089510923C028FEF87B90895813079F483
S11303808091360190E0019683709078992324F44B
S113039001978C6F9F6F0196809336010BC08091FB
S11303A03601811104C083E08093360103C081507B
S11303B080933601E0913601F0E0EE0FFF1FEF5F0E
S11303C0FE4F808188B9089580913D0208958091FF
S11303D03C02811109C081E0D1DF8FE090E08FDF22
S11303E080913C028823B9F383E080933D02089511
S11303F01F93CF93DF93882359F0162FD82FC0E093
S1130400812FBCDF8FE090E07ADFCF5FDC13F8CF81
S1130410DF91CF911F910895CF93C82F80913D0212
S1130420833079F4C23021F46FEF82E3E1DF49C015
S1130430C11104C061E082E3DBDF43C061E084E614
S1130440D7DF80913D02823079F4C13021F46FEF1F
S113045082E3CEDF3BC0C33021F461E082E3C8DF36
S113046035C061E084E6C4DF80913D02813079F4D7
S1130470C11104C06FEF82E3BBDF2DC0C23021F491
S113048061E082E3B5DF27C061E084E6B1DF8091FB
S11304903D02811113C0C33021F46FEF82E3A8DF62
S11304A00DC0C13041F461E082E3A2DF92B184E087
S11304B0892782B903C061E084E69ADFC0933D02D4
S11304C00FC080913D02823079F6CBCF80913D02FE
S11304D08130E9F6D9CF80913D02882361F3EECFD4
S11304E0CF9108951F920F920FB60F9211248F93FC
S11304F081E080933C028F910F900FBE0F901F906C
S113050018959093CD008093CC00E8ECF0E08081C6
S113051082608083E9ECF0E0808188608083EAEC8B
S1130520F0E08081866080830895E8ECF0E09081BB
S113053095FFFDCF8093CE0008950F931F93CF9323
S1130540FC018081882351F08F01C0E0EEDFCF5F92
S1130550F801EC0FF11D80818111F8CFCF911F912B
S11305600F9108950F931F93CF93DF938C019C01F8
S1130570369527953695279536952795A5ECB0E2BF
S1130580F9D1AC01529542954F7045275F704527CC
S11305909A01ADECBCECEED196958795969587952E
S11305A0969587959C01220F331F880F991F880FFA
S11305B0991F880F991F820F931F9A01281B390BCB
S11305C0C901805DB2DF9801369527953695279548
S11305D0ABE7B4E1CFD1AC01569547959A01ADECA8
S11305E0BCECC8D1969587959695879596958795F1
S11305F09C01220F331F880F991F880F991F880FA2
S1130600991F820F931F9A01281B390BC901805D22
S11306108CDF9801ADECBCECADD1EC01D695C7955F
S1130620D695C795D695C7959E01A4D196958795DD
S113063096958795969587959C01220F331F880F71
S1130640991F880F991F880F991F820F931F9E016E
S1130650281B390BC901805D68DFCE01880F991F03
S1130660CC0FDD1FCC0FDD1FCC0FDD1FC80FD91F32
S1130670C8018C1B9D0B805D58DF83E191E05DDF39
S1130680DF91CF911F910F910895F89427DEFDDD3E
S1130690E5DD6FDE54DE1EDD60DD8CE090E031DFF1
S11306A023DE789489E091E048DF88EC90E027DE4F
S11306B08EDE88EC90E023DE81E04CDE8EE148DEC5
S11306C01BDD63E081E074DD88EC90E018DEA3DDDF
S11306D0C82F7ADEC81305C081E03CDE8EE138DE27
S11306E002C099DD99DE84E690E009DEF0CF1F9226
S11306F00F920FB60F9211240BB60F922F933F93C4
S11307004F935F936F937F938F939F93AF93BF9315
S1130710EF93FF9303DDFF91EF91BF91AF919F9111
S11307208F917F916F915F914F913F912F910F9096
S11307300BBE0F900FBE0F901F9018951F920F9233
S11307400FB60F9211240BB60F922F933F934F9332
S11307505F936F937F938F939F93AF93BF93EF9325
S1130760FF9304DDFF91EF91BF91AF919F918F9122
S11307707F916F915F914F913F912F910F900BBE9D
S11307800F900FBE0F901F9018951F920F920FB6E7
S11307900F9211240BB60F922F933F934F935F93B5
S11307A06F937F938F939F93AF93BF93CF93EF9365
S11307B0FF930ADEC82F2FDDC81302C03BDD01C042
S11307C0D4DDFF91EF91CF91BF91AF919F918F9124
S11307D07F916F915F914F913F912F910F900BBE3D
S11307E00F900FBE0F901F9018951F920F920FB687
S11307F00F9211240BB60F922F933F934F935F9355
S11308006F937F938F939F93AF93BF93EF93FF93D4
S1130810F1DCFF91EF91BF91AF919F918F917F9107
S11308206F915F914F913F912F910F900BBE0F905D
S11308300FBE0F901F9018951F920F920FB60F9234
S113084011240BB60F922F933F934F935F936F93A3
S11308507F938F939F93AF93BF93EF93FF93809175
S11308600001813031F462E086E016DD109200016F
S113087032C063E086E010DD81E08093000149DC52
S113088082B947DC8B36934038F086E191E055DE3F
S113089063E083E09CDC1CC03CDC8D30934038F08A
S11308A08DE191E04ADE63E081E091DC11C031DC4E
S11308B08139914038F084E291E03FDE63E082E0E8
S11308C086DC06C08BE291E038DE63E080E07FDC0A
S11308D020DC48DE17DCFF91EF91BF91AF919F912F
S11308E08F917F916F915F914F913F912F910F90D5
S11308F00BBE0F900FBE0F901F9018951F920F9272
S11309000FB60F9211240BB60F922F933F934F9370
S11309105F936F937F938F939F93AF93BF93EF9363
S1130920FF9381E391E009DEFF91EF91BF91AF91D5
S11309309F918F917F916F915F914F913F912F91F3
S11309400F900BBE0F900FBE0F901F90189597FB42
S1130950072E16F4009406D077FD08D01AD007FCB1
S113096005D03EF4909581959F4F089570956195BB
S11309707F4F0895A29FB001B39FC001A39F700D44
S1130980811D1124911DB29F700D811D1124911D93
S11309900895AA1BBB1B51E107C0AA1FBB1FA617C2
S11309A0B70710F0A61BB70B881F991F5A95A9F714
S11109B080959095BC01CD010895F894FFCF79
S11309BE0136002E002D003500426F6F74696E678C
S11309CE2E2E2E0D0A00426C61636B20005768694F
S11309DE74652000537465656C2000416C756D2040
S10909EE00690D0A00007F
S9030000FC
