S0180000476363426F61726450726F6A656374312E737265630F
S11300004BC0000051C40000BAC4000062C000002C
S113001060C00000E2C30000AAC2000005C40000E2
S113002039C4000056C0000054C0000052C0000093
S113003050C000004EC000004CC000004AC0000088
S113004048C0000046C0000044C0000042C0000098
S113005040C000003EC000003CC00000C6C4000018
S113006038C0000036C0000034C0000032C00000B8
S113007030C000008BC300002CC000002AC0000068
S113008028C0000026C0000024C0000022C00000D8
S113009020C000001EC0000011241FBECFEFD0E21C
S11300A0DEBFCDBF11E0A0E0B1E0ECEAFAE000E091
S11300B00BBF02C007900D92A634B107D9F722E016
S11300C0A6E4B1E001C01D92A135B207E1F71FD348
S11300D0EBC496CF81E480937C0088E880937A0017
S11300E082E080937E008FEF9FEF90934E01809388
S11300F04D0110924C0110924B0110924F01089542
S1130100EAE7F0E080818064808308958FEF9FEFB9
S113011090934E0180934D01089580914D019091EB
S11301204E01089510924C0110924B010895809154
S11301304B0190914C01089580914B0190914C0199
S1130140019690934C0180934B01E8E7F0E08081A5
S1130150918190934901809348012081318180915C
S11301604D0190914E012817390740F48091780091
S11301709091790090934E0180934D01EAE7F0E06D
S113018080818064808308951092530110924E02FE
S1130190109252011092500108952091510123337D
S11301A0E8F430914E02832F90E0FC01EE0FFF1F24
S11301B0EE0FFF1FE80FF91FEC5AFE4F41E0448396
S11301C012821182108230935301019662E370E02F
S11301D035D480934E022F5F20935101089590915E
S11301E05001E92FF0E09F01220F331F220F331F2C
S11301F0E20FF31FEC5AFE4F838364839F5F909357
S1130200500108958091520190E0FC01EE0FFF1F10
S1130210EE0FFF1F8E0F9F1FFC01EC5AFE4F8381D0
S1130220089520915201822F90E0FC01EE0FFF1FF0
S1130230EE0FFF1F8E0F9F1FFC01EC5AFE4F84E050
S113024084832F5F209352010895E9E6F0E08081D2
S11302508160808380818C608083EAE6F0E0808125
S113026088608083808182608083808180628083D3
S11302708081806880838DB3836F8DBB08958FEFF9
S113028081B98AB1806E8AB912B80895863089F42A
S11302908BB18F738BB9633021F48BB1806C8BB9C4
S11302A00895613011F45F9A0895623081F45E9A82
S11302B008958BB18F7C8BB9633021F48BB180634B
S11302C08BB90895613011F45C9A08955D9A08958C
S11302D0E1E8F0E08081816080830895AC01E1E889
S11302E0F0E090819860908388EE93E09093890089
S11302F0809388001092850010928400B19A20E0C7
S113030030E005C0B19BFECFB19A2F5F3F4F241759
S113031035071CF4B19BF6CFF7CF089584B18F68ED
S113032084B983E884BD83E085BD17BC089595B185
S1130330907F95B9813011F4299A0895823009F497
S11303402A9A089517BC80E0F2CF0895CF93C82F5E
S113035081E0EDDFC7BDCF91089510924F028FEF7A
S113036087B90895813079F48091460190E001962F
S113037083709078992324F401978C6F9F6F019672
S1130380809346010BC080914601811104C083E033
S11303908093460103C0815080934601E091460159
S11303A0F0E0EE0FFF1FEE5FFE4F808188B90895E5
S11303B080915002089580914F02811109C081E01B
S11303C0D1DF8FE090E08ADF80914F028823B9F378
S11303D083E08093500208957F928F929F92AF9210
S11303E0BF92CF92DF92EF92FF920F931F93CF931E
S11303F0DF93882309F447C0762E0FEF080F10E02F
S11304000F5F1F4FC0E0D0E0882E912C740184E070
S1130410E81AF108640188E0C81AD10854018CE094
S1130420A81AB10880E1881A9108872D9BDFC5308E
S113043020F09E01CE15DF0524F08FE090E04EDF22
S11304401EC0C93018F02C153D0524F08AE090E058
S113045045DF15C0CD3018F02A153B0524F087E0A0
S113046090E03CDF0CC0C13118F02815390524F0A8
S113047085E090E033DF03C083E090E02FDF219636
S1130480C017D10791F6DF91CF911F910F91FF9083
S1130490EF90DF90CF90BF90AF909F908F907F9020
S11304A00895CF93C82F80915002833079F4C230DD
S11304B021F46FEF82E390DF49C0C11104C061E011
S11304C082E38ADF43C061E084E686DF80915002E4
S11304D0823079F4C13021F46FEF82E37DDF3BC0D9
S11304E0C33021F461E082E377DF35C061E084E664
S11304F073DF80915002813079F4C11104C06FEF31
S113050082E36ADF2DC0C23021F461E082E364DF5C
S113051027C061E084E660DF80915002811113C03E
S1130520C33021F46FEF82E357DF0DC0C13041F4D3
S113053061E082E351DF92B184E0892782B903C08C
S113054061E084E649DFC09350020FC080915002FD
S1130550823079F6CBCF809150028130E9F6D9CF41
S113056080915002882361F3EECFCF9108951F92BA
S11305700F920FB60F9211248F9381E080934F0254
S11305808F910F900FBE0F901F9018959093CD00F0
S11305908093CC00E8ECF0E0808182608083E9EC19
S11305A0F0E0808188608083EAECF0E080818660FE
S11305B080830895E8ECF0E0908195FFFDCF80936F
S11305C0CE0008950F931F93CF93FC01808188235D
S11305D051F08F01C0E0EEDFCF5FF801EC0FF11DA9
S11305E080818111F8CFCF911F910F9108950F93BE
S11305F01F93CF93DF938C019C01369527953695F5
S1130600279536952795A5ECB0E22BD2AC015295EF
S113061042954F7045275F7045279A01ADECBCECBD
S113062020D29695879596958795969587959C0162
S1130630220F331F880F991F880F991F880F991F46
S1130640820F931F9A01281B390BC901805DB2DF09
S113065098013695279536952795ABE7B4E101D2F5
S1130660AC01569547959A01ADECBCECFAD1969540
S1130670879596958795969587959C01220F331FAC
S1130680880F991F880F991F880F991F820F931F36
S11306909A01281B390BC901805D8CDF9801ADECF0
S11306A0BCECDFD1EC01D695C795D695C795D69508
S11306B0C7959E01D6D196958795969587959695DB
S11306C087959C01220F331F880F991F880F991F4C
S11306D0880F991F820F931F9E01281B390BC90194
S11306E0805D68DFCE01880F991FCC0FDD1FCC0F12
S11306F0DD1FCC0FDD1FC80FD91FC8018C1B9D0B3C
S1130700805D58DFDF91CF911F910F910895F89488
S1130710DFDDB5DD9ADD21DE01DEDCDC35DD8CE0FC
S113072090E034DF78948AE091E04CDF88EC90E04C
S1130730D5DD41DE88EC90E0D1DD6FEF88E04CDE62
S113074088EC90E0CBDD8CE301DEDADC88EC90E031
S1130750C5DD58DDC82F2CDEC81315C080914701B4
S11307608130B9F780910101813099F78CE3EEDD96
S113077058DD109247018AEFE9DD85E190E0AEDDB6
S11307808CE3E4DDE6CF3EDD8CDEE3CF1F920F92F7
S11307900FB60F9211240BB60F922F933F934F93E2
S11307A05F936F937F938F939F93AF93BF93EF93D5
S11307B0FF93C2DCFF91EF91BF91AF919F918F9115
S11307C07F916F915F914F913F912F910F900BBE4D
S11307D00F900FBE0F901F9018951F920F920FB697
S11307E00F9211240BB60F922F933F934F935F9365
S11307F06F937F938F939F93AF93BF93EF93FF93E5
S1130800CCDCFF91EF91BF91AF919F918F917F913C
S11308106F915F914F913F912F910F900BBE0F906D
S11308200FBE0F901F9018951F920F920FB60F9244
S113083011240BB60F922F933F934F935F936F93B3
S11308407F938F939F93AF93BF93CF93EF93FF9334
S1130850AFDDC82FD7DCC81305C085E190E03EDDCD
S1130860E0DC04C06FDD81E080934701FF91EF91EC
S1130870CF91BF91AF919F918F917F916F915F9134
S11308804F913F912F910F900BBE0F900FBE0F9081
S11308901F9018951F920F920FB60F9211240F906C
S11308A00FBE0F901F9018951F920F920FB60F92C4
S11308B011240BB60F922F933F934F935F936F9333
S11308C07F938F939F93AF93BF93EF93FF93809105
S11308D00001813039F462E086E0D8DC1092000136
S11308E021DC3AC063E086E0D1DC81E08093000142
S11308F014DC82B912DC8B3B934038F087E191E041
S113090061DE63E083E06BDC1CC007DC813793406D
S113091038F08EE191E056DE63E081E060DC11C0E6
S1130920FCDB8139914038F085E291E04BDE63E0F5
S113093082E055DC06C08CE291E044DE63E080E0B6
S11309404EDCEBDB54DE82E391E03CDEF0DB4FDE99
S113095084E191E037DEDADBFF91EF91BF91AF9153
S11309609F918F917F916F915F914F913F912F91C3
S11309700F900BBE0F900FBE0F901F9018951F92F3
S11309800F920FB60F9211240BB60F922F933F9331
S11309904F935F936F937F938F939F93AF93BF9383
S11309A0EF93FF9381E090910101911180E0809396
S11309B00101811105C08AE391E004DEC3DC02C0B9
S11309C08CE3C4DCFF91EF91BF91AF919F918F9124
S11309D07F916F915F914F913F912F910F900BBE3B
S11309E00F900FBE0F901F9018951F920F920FB685
S11309F00F9211240BB60F922F933F934F935F9353
S1130A006F937F938F939F93AF93BF93EF93FF93D2
S1130A1082E491E0D7DDFF91EF91BF91AF919F9177
S1130A208F917F916F915F914F913F912F910F9093
S1130A300BBE0F900FBE0F901F90189597FB072EBB
S1130A4016F4009406D077FD08D01AD007FC05D020
S1130A503EF4909581959F4F0895709561957F4FD1
S1130A600895A29FB001B39FC001A39F700D811D83
S1130A701124911DB29F700D811D1124911D0895A3
S1130A80AA1BBB1B51E107C0AA1FBB1FA617B707B0
S1130A9010F0A61BB70B881F991F5A95A9F78095CC
S10F0AA09095BC01CD010895F894FFCF9F
S1130AAC010136002E002D003500426F6F74696E03
S1130ABC672E2E2E0D0A00426C61636B2000576862
S1130ACC6974652000537465656C2000416C756D08
S1130ADC200020436F756E74200070617573650D72
S1090AEC0A00690D0A0076
S9030000FC
