:100000004BC0000019C3000064C0000062C00000C3
:1000100060C0000095C2000032C20000B8C20000FB
:10002000E4C2000056C0000054C0000052C00000EE
:1000300050C000004EC000004CC000004AC000008C
:1000400048C0000046C0000044C0000042C000009C
:1000500040C000003EC000003CC000003AC00000AC
:1000600038C0000036C0000034C0000032C00000BC
:1000700030C000003EC200002CC000002AC00000BA
:1000800028C0000026C0000024C0000022C00000DC
:1000900020C000001EC0000011241FBECFEFD0E220
:1000A000DEBFCDBF11E0A0E0B1E0ECE2F7E000E0A0
:1000B0000BBF02C007900D92AA30B107D9F722E01A
:1000C000AAE0B1E001C01D92A031B207E1F7E6D18C
:1000D0002BC396CF81E680937C0088E880937A00DA
:1000E00082E080937E008FEF80930D0110920E01CD
:1000F0000895EAE7F0E080818064808308958FEFBF
:1001000080930D01089580910D010895E9E7F0E0D5
:10011000808180930B01908180910D01981720F4CC
:100120008091790080930D01E4CF08951092110120
:1001300010920D0210920C0210921001089520915D
:100140000F012333F8F430910D02832F90E0FC016E
:10015000EE0FFF1FEE0FFF1FE80FF91FEE5EFE4FC1
:1001600043E0438341E04483128211821082309342
:100170001101019662E370E0B0D280930D022F5F0F
:1001800020930F010895E0911001F0E09F01220FEC
:10019000331F220F331FE20FF31FEE5EFE4F8383E8
:1001A00064830895E0911101F0E0CF01880F991F59
:1001B000880F991FE80FF91FEE5EFE4F81E08283E2
:1001C00082E0838308958091100190E0FC01EE0F9E
:1001D000FF1FEE0FFF1F8E0F9F1FFC01EE5EFE4FF5
:1001E0008381089520911001822F90E0FC01EE0F91
:1001F000FF1FEE0FFF1F8E0F9F1FFC01EE5EFE4FD5
:1002000084E084832F5F209310010895E9E6F0E0F5
:10021000808181608083EAE6F0E08081886080836D
:100220008081826080838081806280838081806819
:1002300080838DB3816F8DBB08958FEF81B98AB1B3
:10024000806F8AB912B80895863089F48BB18F73A4
:100250008BB9633021F48BB1806C8BB90895613018
:1002600011F45F9A0895623081F45E9A08958BB11B
:100270008F7C8BB9633021F48BB180638BB9089587
:10028000613011F45C9A08955D9A0895E1E8F0E018
:100290008081816080830895AC01E1E8F0E0908185
:1002A0009860908388EE93E0909389008093880013
:1002B0001092850010928400B19A20E030E005C0D1
:1002C000B19BFECFB19A2F5F3F4F241735071CF427
:1002D000B19BF6CFF7CF089584B18F6884B983E8D6
:1002E00084BD83E085BD17BC089587BD089595B191
:1002F000907F95B9813011F4299A0895823009F4DC
:100300002A9A089517BC80E0F2CF089510920E0249
:100310008FEF87B90895813079F480910A0190E0D8
:10032000019683709078992324F401978C6F9F6FC6
:10033000019680930A010BC080910A01811104C0CB
:1003400083E080930A0103C0815080930A01E09109
:100350000A01F0E0EE0FFF1FEF5FFE4F808188B9CA
:10036000089580910F02089580910E02811109C0B5
:1003700081E0D1DF89E190E08FDF80910E02882358
:10038000B9F383E080930F0208951F93CF93DF9317
:10039000882359F0162FD82FC0E0812FBCDF89E1C8
:1003A00090E07ADFCF5FDC13F8CFDF91CF911F9120
:1003B0000895CF93C82F80910F02833079F4C23013
:1003C00021F46FEF82E3E1DF49C0C11104C061E0B5
:1003D00082E3DBDF43C061E084E6D7DF80910F0278
:1003E000823079F4C13021F46FEF82E3CEDF3BC07D
:1003F000C33021F461E082E3C8DF35C061E084E608
:10040000C4DF80910F02813079F4C11104C06FEF15
:1004100082E3BBDF2DC0C23021F461E082E3B5DFAF
:1004200027C061E084E6B1DF80910F02811113C023
:10043000C33021F46FEF82E3A8DF0DC0C13041F477
:1004400061E082E3A2DF92B184E0892782B903C030
:1004500061E084E69ADFC0930F020FC080910F0223
:10046000823079F6CBCF80910F028130E9F6D9CF77
:1004700080910F02882361F3EECFCF9108951F92F0
:100480000F920FB60F9211248F9381E080930E028A
:100490008F910F900FBE0F901F901895F894F6DE75
:1004A000CCDEB4DE33DF18DF15DE40DE789488EC76
:1004B00090E0F2DE59DF88EC90E0EEDE81E017DFBD
:1004C0008FE013DF16DE63E081E05DDE88EC90E014
:1004D000E3DE79DEC82F45DFC81305C081E007DF02
:1004E0008FE003DF02C06FDE64DF84E690E0D4DEDD
:1004F000F0CF1F920F920FB60F9211240BB60F92EE
:100500002F933F934F935F936F937F938F939F931B
:10051000AF93BF93EF93FF93F9DDFF91EF91BF91FD
:10052000AF919F918F917F916F915F914F913F918B
:100530002F910F900BBE0F900FBE0F901F9018952C
:100540001F920F920FB60F9211240BB60F922F939A
:100550003F934F935F936F937F938F939F93AF934B
:10056000BF93EF93FF93EBDDFF91EF91BF91AF91BD
:100570009F918F917F916F915F914F913F912F91BB
:100580000F900BBE0F900FBE0F901F9018951F92EB
:100590000F920FB60F9211240BB60F922F933F9329
:1005A0004F935F936F937F938F939F93AF93BF937B
:1005B000CF93EF93FF93D5DEC82F05DEC813A2DEDD
:1005C00011DEFF91EF91CF91BF91AF919F918F91EC
:1005D0007F916F915F914F913F912F910F900BBE43
:1005E0000F900FBE0F901F9018951F920F920FB68D
:1005F0000F9211240BB60F922F933F934F935F935B
:100600006F937F938F939F93AF93BF93EF93FF93DA
:10061000C9DDFF91EF91BF91AF919F918F917F9134
:100620006F915F914F913F912F910F900BBE0F9063
:100630000FBE0F901F9018951F920F920FB60F923A
:1006400011240BB60F922F933F934F935F936F93A9
:100650007F938F939F93AF93BF93EF93FF9380917B
:100660000001813031F462E086E0EEDD109200019D
:1006700021C063E086E0E8DD81E08093000143DD96
:1006800082B941DD893E20F063E083E07CDD11C06A
:100690003ADD853D20F063E081E075DD0AC033DDA1
:1006A000873720F063E082E06EDD03C063E080E026
:1006B0006ADD25DDFF91EF91BF91AF919F918F9101
:1006C0007F916F915F914F913F912F910F900BBE52
:1006D0000F900FBE0F901F90189597FB072E16F4E2
:1006E000009406D077FD08D00BD007FC05D03EF46F
:1006F000909581959F4F0895709561957F4F0895CE
:10070000AA1BBB1B51E107C0AA1FBB1FA617B70737
:1007100010F0A61BB70B881F991F5A95A9F7809553
:0C0720009095BC01CD010895F894FFCF26
:0A072C000136002E002D00350000FC
:00000001FF
