S0180000476363426F61726450726F6A656374312E737265630F
S11300004BC00000A9C2000064C0000062C0000030
S113001060C0000026C20000CDC1000049C200003B
S113002074C2000056C0000054C0000052C000005A
S113003050C000004EC000004CC000004AC0000088
S113004048C0000046C0000044C0000042C0000098
S113005040C000003EC000003CC000003AC00000A8
S113006038C0000036C0000034C0000032C00000B8
S113007030C00000CFC100002CC000002AC0000026
S113008028C0000026C0000024C0000022C00000D8
S113009020C000001EC0000011241FBECFEFD0E21C
S11300A0DEBFCDBF11E0A0E0B1E0EEECF5E000E092
S11300B00BBF02C007900D92A830B107D9F722E018
S11300C0A8E0B1E001C01D92AB30B207E1F781D1E5
S11300D07CC296CFEAE7F0E0808180648083089553
S11300E0CF93DF93C9E7D0E0888180930901F2DFE1
S11300F0888182B9888187BDDF91CF91089510925C
S11301000C011092080210920702089520910B012D
S11301102333F8F430910802832F90E0FC01EE0FB2
S1130120FF1FEE0FFF1FE80FF91FE35FFE4F44E0D0
S1130130438341E0448312821182108230930C0184
S1130140019662E370E01AD2809308022F5F209335
S11301500B010895E0910C01F0E0CF01880F991F85
S1130160880F991FE80FF91FE35FFE4F81E0828338
S113017082E0838308958091070290E0FC01EE0FF2
S1130180FF1FEE0FFF1F8E0F9F1FFC01E35FFE4F4B
S113019083810895E9E6F0E0808181608083EAE666
S11301A0F0E08081886080838081826080838081A8
S11301B0806280838081806880838DB3816F8DBBF2
S11301C008958FEF81B912B80895E1E8F0E08081D5
S11301D0816080830895AC01E1E8F0E0908198604B
S11301E0908388EE93E09093890080938800109226
S11301F0850010928400B19A20E030E005C0B19BE4
S1130200FECFB19A2F5F3F4F241735071CF4B19BE3
S1130210F6CFF7CF089584B18F6884B983E884BD9D
S113022083E085BD17BC089587BD089595B1907F7F
S113023095B9813011F4299A0895823009F42A9AE3
S1130240089517BC80E0F2CF0895109209028FEF51
S113025087B90895813079F48091080190E001967E
S113026083709078992324F401978C6F9F6F019683
S1130270809308010BC080910801811104C083E0C0
S11302808093080103C0815080930801E091080124
S1130290F0E0EE0FFF1FE050FF4F808188B9089512
S11302A080910A02089580910902811109C081E0B8
S11302B0D1DF8FE090E08FDF809109028823B9F3CA
S11302C083E080930A0208951F93CF93DF938823DA
S11302D059F0162FD82FC0E0812FBCDF8FE090E0BB
S11302E07ADFCF5FDC13F8CFDF91CF911F910895B0
S11302F0CF93C82F80910A02833079F4C23021F45D
S11303006FEF82E3E1DF45C0C11104C061E082E325
S1130310DBDF3FC061E084E6D7DF80910A028230F0
S113032079F4C13021F46FEF82E3CEDF37C0C330FC
S113033021F461E082E3C8DF31C061E084E6C4DF18
S113034080910A02813079F4C11104C06FEF82E315
S1130350BBDF29C0C23021F461E082E3B5DF23C0F2
S113036061E084E6B1DF80910A0281110FC0C330DD
S113037021F46FEF82E3A8DF09C0C13021F461E00A
S113038082E3A2DF03C061E084E69EDFC0930A0239
S11303900FC080910A02823099F6CFCF80910A0271
S11303A0813009F7DDCF80910A02882361F3EECF13
S11303B0CF9108951F920F920FB60F9211248F932D
S11303C081E0809309028F910F900FBE0F901F90D0
S11303D01895F894FADEF5DEDDDE37DF1CDF8FDEFC
S11303E0789488EC90E0F7DE5EDF88EC90E0F3DE52
S11303F081E01CDF86E118DF88EC90E0ECDEBBDEF8
S1130400C82F4EDFC81711F0B6DE72DF84E690E025
S1130410E2DEF5CF1F920F920FB60F9211240BB6A6
S11304200F922F933F934F935F936F937F938F9389
S11304309F93AF93BF93EF93FF9352DEFF91EF919E
S1130440BF91AF919F918F917F916F915F914F91E8
S11304503F912F910F900BBE0F900FBE0F901F90E6
S113046018951F920F920FB60F9211240BB60F928C
S11304702F933F934F935F936F937F938F939F93A8
S1130480AF93BF93EF93FF9341DEFF91EF91BF9141
S1130490AF919F918F917F916F915F914F913F9118
S11304A02F910F900BBE0F900FBE0F901F901895B9
S11304B01F920F920FB60F9211240BB60F922F9327
S11304C03F934F935F936F937F938F939F93AF93D8
S11304D0BF93CF93EF93FF93E3DEC82F4CDEC81393
S11304E0B0DEFF91EF91CF91BF91AF919F918F912A
S11304F07F916F915F914F913F912F910F900BBE20
S11305000F900FBE0F901F9018951F920F920FB669
S11305100F9211240BB60F922F933F934F935F9337
S11305206F937F938F939F93AF93BF93EF93FF93B7
S113053011DEFF91EF91BF91AF919F918F917F91C8
S11305406F915F914F913F912F910F900BBE0F9040
S11305500FBE0F901F9018951F920F920FB60F9217
S113056011248F939F9392B181E0892782B99F913F
S11305708F910F900FBE0F901F90189597FB072E29
S113058016F4009406D077FD08D00BD007FC05D0F4
S11305903EF4909581959F4F0895709561957F4F96
S11305A00895AA1BBB1B51E107C0AA1FBB1FA617B6
S11305B0B70710F0A61BB70B881F991F5A95A9F708
S11105C080959095BC01CD010895F894FFCF6D
S10B05CE36002E002D0035005B
S9030000FC
