S0180000476363426F61726450726F6A656374312E737265630F
S11300004BC00000F6C2000064C0000062C00000E3
S113001060C0000073C2000018C2000096C2000055
S1130020C1C2000056C0000054C0000052C000000D
S113003050C000004EC000004CC000004AC0000088
S113004048C0000046C0000044C0000042C0000098
S113005040C000003EC000003CC000003AC00000A8
S113006038C0000036C0000034C0000032C00000B8
S113007030C000001CC200002CC000002AC00000D8
S113008028C0000026C0000024C0000022C00000D8
S113009020C000001EC0000011241FBECFEFD0E21C
S11300A0DEBFCDBF11E0A0E0B1E0E8EBF6E000E098
S11300B00BBF02C007900D92AA30B107D9F722E016
S11300C0AAE0B1E001C01D92A031B207E1F7CCD1A2
S11300D0F1C296CF81E680937C0088E880937A0011
S11300E082E080937E008FEF80930D0110920E01C9
S11300F00895EAE7F0E080818064808308958FEFBB
S113010080930D010895E9E7F0E0808180930B016D
S1130110908180910D01981720F48091790080934B
S11301200D01E7DF80910D0182B90895109211014C
S113013010920D0210920C02109210010895209159
S11301400F012333F8F430910D02832F90E0FC016A
S1130150EE0FFF1FEE0FFF1FE80FF91FEE5EFE4FBD
S113016044E0438341E0448312821182108230933D
S11301701101019662E370E076D280930D022F5F45
S113018020930F010895E0911001F0E09F01220FE8
S1130190331F220F331FE20FF31FEE5EFE4F8383E4
S11301A064830895E0911101F0E0CF01880F991F55
S11301B0880F991FE80FF91FEE5EFE4F81E08283DE
S11301C082E0838308958091100190E0FC01EE0F9A
S11301D0FF1FEE0FFF1F8E0F9F1FFC01EE5EFE4FF1
S11301E083810895E9E6F0E0808181608083EAE616
S11301F0F0E0808188608083808182608083808158
S1130200806280838081806880838DB3816F8DBBA1
S113021008958FEF81B98AB1806F8AB912B80895B1
S1130220863079F48BB18F738BB9633021F48BB141
S1130230806C8BB90895613011F45F9A08955E9AC9
S113024008958BB18F7C8BB9633021F48BB18063BB
S11302508BB90895613011F45C9A08955D9A0895FC
S1130260E1E8F0E08081816080830895AC01E1E8F9
S1130270F0E090819860908388EE93E090938900F9
S1130280809388001092850010928400B19A20E037
S113029030E005C0B19BFECFB19A2F5F3F4F2417CA
S11302A035071CF4B19BF6CFF7CF089584B18F685E
S11302B084B983E884BD83E085BD17BC089587BDF8
S11302C0089595B1907F95B9813011F4299A0895D4
S11302D0823009F42A9A089517BC80E0F2CF089579
S11302E010920E028FEF87B90895813079F48091CE
S11302F00A0190E0019683709078992324F4019781
S11303008C6F9F6F019680930A010BC080910A0144
S1130310811104C083E080930A0103C0815080935B
S11303200A01E0910A01F0E0EE0FFF1FEF5FFE4FBC
S1130330808188B9089580910F02089580910E02FA
S1130340811109C081E0D1DF8AE090E08FDF8091E4
S11303500E028823B9F383E080930F0208951F935C
S1130360CF93DF93882359F0162FD82FC0E0812F25
S1130370BCDF8AE090E07ADFCF5FDC13F8CFDF9157
S1130380CF911F910895CF93C82F80910F0283308E
S113039079F4C23021F46FEF82E3E1DF45C0C1118B
S11303A004C061E082E3DBDF3FC061E084E6D7DFC5
S11303B080910F02823079F4C13021F46FEF82E32F
S11303C0CEDF37C0C33021F461E082E3C8DF31C03F
S11303D061E084E6C4DF80910F02813079F4C111B9
S11303E004C06FEF82E3BBDF29C0C23021F461E0B7
S11303F082E3B5DF23C061E084E6B1DF80910F02C0
S113040081110FC0C33021F46FEF82E3A8DF09C06C
S1130410C13021F461E082E3A2DF03C061E084E63D
S11304209EDFC0930F020FC080910F02823099F6B5
S1130430CFCF80910F02813009F7DDCF80910F0279
S1130440882361F3EECFCF9108951F920F920FB6D8
S11304500F9211248F9381E080930E028F910F905D
S11304600FBE0F901F901895F894FADED2DEBADE14
S113047037DF1CDF2FDE5ADE789488EC90E0F6DE5E
S11304805DDF88EC90E0F2DE81E01BDF8FE017DFB8
S113049030DE88EC90E0EADE96DEC82F4CDFC81729
S11304A011F091DE70DF84E690E0E0DEF5CF1F927C
S11304B00F920FB60F9211240BB60F922F933F9306
S11304C04F935F936F937F938F939F93AF93BF9358
S11304D0EF93FF9318DEFF91EF91BF91AF919F913E
S11304E08F917F916F915F914F913F912F910F90D9
S11304F00BBE0F900FBE0F901F9018951F920F9276
S11305000FB60F9211240BB60F922F933F934F9374
S11305105F936F937F938F939F93AF93BF93EF9367
S1130520FF930DDEFF91EF91BF91AF919F918F915A
S11305307F916F915F914F913F912F910F900BBEDF
S11305400F900FBE0F901F9018951F920F920FB629
S11305500F9211240BB60F922F933F934F935F93F7
S11305606F937F938F939F93AF93BF93CF93EF93A7
S1130570FF93E1DEC82F27DEC813AEDEFF91EF91B3
S1130580CF91BF91AF919F918F917F916F915F9127
S11305904F913F912F910F900BBE0F900FBE0F9074
S11305A01F9018951F920F920FB60F9211240BB63D
S11305B00F922F933F934F935F936F937F938F93F8
S11305C09F93AF93BF93EF93FF93ECDDFF91EF9174
S11305D0BF91AF919F918F917F916F915F914F9157
S11305E03F912F910F900BBE0F900FBE0F901F9055
S11305F018951F920F920FB60F9211240BB60F92FB
S11306002F933F934F935F936F937F938F939F9316
S1130610AF93BF93EF93FF9380910001813031F446
S113062062E086E0FDDD109200010AC063E086E02E
S1130630F7DD81E08093000162DD63E081E0A3DD0A
S1130640FF91EF91BF91AF919F918F917F916F91A6
S11306505F914F913F912F910F900BBE0F900FBE62
S11306600F901F90189597FB072E16F4009406D050
S113067077FD08D00BD007FC05D03EF4909581950A
S11306809F4F0895709561957F4F0895AA1BBB1BDA
S113069051E107C0AA1FBB1FA617B70710F0A61B7E
S11306A0B70B881F991F5A95A9F780959095BC019F
S10B06B0CD010895F894FFCF79
S10D06B80136002E002D003500006D
S9030000FC
