:100000004BC0000059C0000057C0000055C00000A0
:1000100053C0000051C000004FC000004DC00000A0
:100020004BC0000049C0000047C0000045C00000B0
:1000300043C0000041C000003FC000003DC00000C0
:100040003BC0000039C0000037C0000035C00000D0
:1000500033C0000031C000002FC000002DC00000E0
:100060002BC0000029C0000027C0000025C00000F0
:1000700023C0000021C000001FC000001DC0000000
:100080001BC0000019C0000017C0000015C0000010
:1000900013C0000011C0000011241FBECFEFD0E23A
:1000A000DEBFCDBF21E0A0E0B1E001C01D92A130D4
:1000B000B207E1F726D031C0A3CF8FEF8AB987E02E
:1000C0008BB9089580910001853020F48BB1880FA1
:1000D0008BB903C08BB186958BB9909100019F5F5E
:1000E0008DEC989F812D1124869586958695880F95
:1000F000282F220F220F820F981B90930001089542
:100100000895FEDFDADFC8EEDDDF88EE93E02C2F06
:0E0110002A95F1F70197D9F7F7CFF894FFCFB2
:00000001FF
